:04000000C7EF00F056
:100018002B80D8CF01F0E8CF02F0E0CF03F0F2A4B4
:1000280018EF00F01AEF00F0BFEF00F0F2AA1FEF90
:1000380000F021EF00F0BFEF00F0F294FE0ED76E53
:10004800180ED66E28BE32EF00F0285009E1270EB0
:10005800275CD8A032EF00F034EF00F03CEF00F05E
:10006800000E286E000E276E010E296E3EEF00F07E
:10007800274A282A27502810D8A445EF00F047EF30
:1000880000F04AEF00F08192BFEF00F0020E27184F
:100098002810D8A452EF00F054EF00F057EF00F00A
:1000A8008180BFEF00F0040E27182810D8A45FEF56
:1000B80000F061EF00F064EF00F08190BFEF00F016
:1000C800060E27182810D8A46CEF00F06EEF00F089
:1000D80071EF00F08182BFEF00F00C0E2718281096
:1000E800D8A479EF00F07BEF00F07EEF00F0808875
:1000F800BFEF00F00E0E27182810D8A486EF00F0E6
:1001080088EF00F08BEF00F08098BFEF00F0140E3E
:1001180027182810D8A493EF00F095EF00F098EF77
:1001280000F08196BFEF00F0160E27182810D8A40B
:10013800A0EF00F0A2EF00F0A5EF00F08184BFEF80
:1001480000F0180E27182810D8A4ADEF00F0AFEF74
:1001580000F0B2EF00F08194BFEF00F01A0E2718FC
:100168002810D8A4BAEF00F0BCEF00F0BFEF00F001
:100178008186BFEF00F003C0E0FF02C0E8FF01C0C6
:0A018800D8FF2B9010003DEF04F0AB
:100600000000000E106E000E0F6E000E126E000E37
:10061000116E000E146E000E136E000E166E000E9C
:10062000156E000ECAEC03F004C00DF005C00EF00C
:10063000010ECAEC03F004C00FF005C010F0020E6A
:10064000CAEC03F004C011F005C012F0030ECAECAE
:1006500003F004C013F005C014F0000E166E000E77
:10066000156E1550170FD96EDA6ADF6A154A162A09
:1006700016BE44EF03F0165009E10E0E155CD8A02B
:1006800044EF03F046EF03F031EF03F0AA0E176ECC
:100690000DC00BF00EC00CF00C340C320B320C34CD
:1006A0000C320B320B50226E0FC00BF010C00CF04E
:1006B0000C340C320B320C340C320B320B50236ED8
:1006C0000F50030B040DF3CF0BF00D50030B400D37
:1006D000F3500B24246E12BE77EF03F09B0E115CD7
:1006E000030E1258D8A077EF03F079EF03F07DEFF7
:1006F00003F00C0E1B268DEF03F012BE89EF03F002
:10070000125009E1CD0E115CD8A089EF03F08BEFF8
:1007100003F08DEF03F0040E1B2614BE99EF03F0D7
:100720009B0E135C030E1458D8A099EF03F09BEFB7
:1007300003F09FEF03F0030E1B26AEEF03F014BE91
:10074000ABEF03F0145009E1CD0E135CD8A0ABEF72
:1007500003F0ADEF03F0AEEF03F01B2A000E166EB0
:10076000000E156E1550170FD96EDA6ADF5048EC7F
:1007700004F0154A162A16BEC7EF03F0165009E119
:100780000E0E155CD8A0C7EF03F0C9EF03F0B2EF6F
:1007900003F01200086EC250C30BC26E08500F0B5C
:1007A000040DF350C224C26E000E0A6E000E096ED4
:1007B000094A0A2A0ABEE6EF03F00A5009E1320E9E
:1007C000095CD8A0E6EF03F0E8EF03F0D8EF03F000
:1007D000C282C2B2EEEF03F0F0EF03F0E9EF03F0F4
:1007E000C450076E066AC3500624256E000E07200B
:1007F000266E25C004F026C005F012000F0E926E82
:10080000300E936ED40E946E806A816A400E826EB2
:100810000B0EC16EB20EC06E010EC26E880ED56E8A
:10082000FE0ED76E180ED66E2FEC04F081828186F4
:10083000819081948098A00EF26E1200FEEC03F07D
:100840002904D8A426EF04F028EF04F020EF04F0E8
:10085000296A01EC03F020EF04F0C7EF00F0948C5C
:10086000948E270EAF6EB06AAC9EAC9CAC8AAC98EE
:10087000AC84B886900EAB6E120000EE17F0140E2A
:10088000EE6AE806FDE12B902B9200011EEF04F0CA
:10089000046E04C0ADFFACA250EF04F052EF04F0C0
:0608A0004BEF04F0120012
:020000040020DA
:08000000FFFFFFFFFFFFFFFF00
:020000040030CA
:0E000000FF02191EFF0180FF0FC00FE00F402E
:00000001FF
