:04000000F0EF04F029
:1000080000C017F001C016F002C015F0E1CF18F0DB
:10001800E2CF19F09DAC18D09EAC16D09E9CC4CFF0
:1000280024F0236AC3502326000E24222650000AF7
:1000380003E1010E226E08D01F50010A05E123C01A
:1000480080F424C081F46CDAF2A456D0F294C2820F
:100058002750000801E2270681A01CD02750000A7B
:1000680019E11F50000A16E12550000A13E1265035
:100078000108266E2650000A02E1818809D081987D
:10008800286A296A1C6A1D6A1A6A1B6A206A216A18
:10009800640E276E81A211D02750000A0EE1265067
:1000A800010A0BE11F50000A08E12550000A05E18A
:1000B800010E256E819A640E276E81A419D02750EF
:1000C800000A16E12650010A13E11F50000A10E148
:1000D8002550000A0DE1010E1F6E819C286A296ACD
:1000E8001C6A1D6A1A6A1B6A206A216A640E276ED6
:1000F800FC0ED76EF30ED66E17C000F016C001F0D6
:0E01080015C002F018C0E1FF19C0E2FF11009F
:100116007FC4C9FFC7B002D00000FCD7C9CF00F02A
:020126001200C5
:100128007FC4C9FFC7B002D00000FCD7C9CF00F018
:020138001200B3
:10013A0004017E6B3551000A1EE17851110A10E064
:10014A007851120A0DE07851180A0AE07851190A12
:10015A0007E07851200A04E07851210A01E00BD027
:10016A00090E006E005007E0793779917A377B37AC
:10017A007C37FF0FF8D7FE0E8216400E78117F6F7C
:10018A00C5DF7CC400F0016A026A036A00C07FF41A
:10019A00BDDF7BC400F07CC401F0026A036A00C0C0
:1001AA007FF4B4DF7AC400F07BC401F07CC402F0AF
:1001BA00036A00C07FF4AADF79C47FF4A7DF0401D1
:1001CA007851080A04E1870E7F6FA0DF04D0950EEC
:1001DA0004017F6F9BDFFF0E04017F6FA0DF00C069
:1001EA007DF40050FF0A09E17EC401F004017E2B70
:1001FA000150FE0801E201D0EED704017D51000A48
:10020A001DE178513A0A1AE1FF0E7F6F88DF400E2E
:10021A000014016E0150400A04E1010E0401356F19
:10022A0002D00401356BFF0E7F6F79DFFF0E0401E8
:10023A007F6F75DFFF0E04017F6F71DFFF0E040110
:0C024A007F6F6DDF82807DC400F0120029
:10025600280E0401466F010E476F7F0E486F040E8D
:10026600496F160E506F010E516F7F0E526F040EBE
:10027600536F949A7351040A02E1948601D09496BE
:100286009488C66A7351C6127551C6127451C71244
:10029600755305E07651000A01E1C78C03D0765309
:0802A60001E0C78CC68A1200BA
:1002AE000401766B776B736B140E735D06E2FF0EB3
:1002BE007F6F2ADF0401732BF7D7FE0E8216786B41
:1002CE00796B7A6B7B6B7C6B31DF00C074F404014D
:1002DE00764B772B000E006E7751005C02E1765163
:1002EE00FE0803E2010E006E12007451010AE7E1EE
:1002FE008280FF0E7F6F08DFFF0E04017F6F04DF29
:10030E000401766B776B020E756F080E786FAA0E6E
:10031E00796F010E7A6F000E7B6F7C6F07DF00C066
:10032E0074F40401764B772B000E006E7751005C4F
:10033E0002E17651FE0805E2010E756F010E346F73
:10034E0003D07451010AE1E1766B776B370E786F4B
:10035E00796B7A6B7B6B7C6BE9DE00C074F4290ED3
:10036E000401786F000E796F000E7A6F000E7B6FAE
:10037E00400E7C6FDBDE00C074F40401764B772BED
:10038E007751040802E17651FE0803E2020E006E78
:10039E0012007451000ADAE1766B776B356B75518A
:1003AE00020A21E13A0E786F796B7A6B7B6B7C6B6C
:1003BE00BDDE00C074F40401764B772B000E006E88
:1003CE007751005C02E17651FE0802E2346B03D0F5
:1003DE007451000AE7E13551010A03E1020E346F50
:0A03EE0002D0030E346F006A120003
:1003F8000401716B726B020E736F746B756B010E77
:10040800766F25DF50DF00C071F4000E726F020EA8
:10041800736F746B756B010E766F19DF71C400F022
:0604280072C401F0120095
:10042E00FF0E0401586FFF0E596FFF0E5A6FFF0E2D
:10043E005B6FFF0E546FFF0E556F000E566F000E62
:10044E00576FFF0E426FFF0E436F000E446F000E8C
:10045E00456FFF0E3C6FFF0E3D6F000E3E6F000EA0
:10046E003F6FAC8A900EAB6E948E949C9EAA03D076
:08047E00AECF00F0FBD7120025
:1004860036C400F037C401F001320032019E01BCCF
:10049600018E01320032019E01BC018E00C030F493
:1004A600030E04013615316F060E006E005004E08F
:1004B60031373191FF0FFBD7040E026E38C400F0BE
:1004C60039C401F0025007E001320032019E01BC3E
:1004D600018EFF0FF8D7005031270F0E3815326FF7
:1004E6003237329132373291323732913237329156
:1004F600060E026E3AC400F03BC401F0025007E05B
:1005060001320032019E01BC018EFF0FF8D7005068
:1005160032273F0E3A15336F3337339133373391E2
:020526001200C1
:1005280028C000F029C001F0003600900136360ED0
:100538000024E16E040E0120E26E80C4E6FF81C44F
:10054800E6FF000E291802E1020E281803E1286AC6
:10055800296A02D0284A292A000E291802E1000E29
:100568002818D8A488D08BDF000E1D1802E1010ED0
:100578001C1805E12A0E406F020E416F04D02A0EA6
:10058800406F000E416F20C000F021C001F000361E
:100598000090013600360090013600504025E16E8B
:1005A80001504121E26E30C4E6FF20C000F021C0B6
:1005B80001F0003600900136003600900136004AFE
:1005C800012A00504025E16E01504121E26E31C4FC
:1005D800E6FF20C000F021C001F00036009001368F
:1005E800003600900136020E0026000E012200504F
:1005F8004025E16E01504121E26E32C4E6FF20C081
:1006080000F021C001F0003600900136003600905D
:100618000136030E0026000E012200504025E16E2F
:1006280001504121E26E33C4E6FF000E215C02E175
:100638007F0E205C03E2204A212A1DD0206A216A0D
:100648001C5001081C6E1D50000E1D56000E1D1872
:1006580002E1010E1C1802E1818C01D0819C1A4A2A
:100668001B2A000E1B5C02E10A0E1A5C02E31F6AD9
:08067800818C010E1E6E1200C0
:10068000AA0E04014A6F4B6B64C400F065C401F00C
:1006900001320032019E01320032019E00C04CF452
:1006A0004D6B030E64154E6F4E374E914E374E9183
:0406B0004F6B12007A
:1006B4000900F5CFE6FF0006FBE10106F9E11200AF
:1006C400010E926EFF0E806E0F0E936EF00E816E11
:1006D400D40E946EFF0E826E0E0EC16EAE0EC06E00
:1006E400010EC26E840ED56EFC0ED76EF30ED66E5E
:1006F400E00EF26E840EF16E400E9D6E280EAF6E0B
:10070400AC8493DEAC8AAC98AC9C819873DE000E0A
:0E071400011802E1000E001801E181881200B8
:100722000401646B656B646B656B800E6519006E0A
:10073200800E005C02E1060E645D0EE24A0E642544
:10074200E96E040E6521EA6EEECFADFFACB201D0C8
:0A075200FDD7644B652BE9D71200B8
:10075C000401366B376B386B396B3A6B3B6B2A6B1E
:0C076C002B6B2C6B2D6B2E6B2F6B120077
:1007780004016D6B6E6B110E786F64C479F465C4F7
:100788007AF466C47BF467C47CF4D3DC00C06AF4F2
:100798000050000A03E06AC400F012000401FE0ED3
:1007A80082166D6B6E6BFF0E7F6FBADC0050FE0A0F
:1007B80012E06DC401F06EC402F004016D4B6E2BA3
:1007C8000250FF0802E10150FE0804E28280010E97
:1007D800006E1200E8D704016B6B6C6B020E6C5D47
:1007E80002E1000E6B5D13E26B5168256F6F6C516F
:1007F8006921706FFF0E7F6F93DC6FC4E1FF70C4D7
:10080800E2FF00C0E6FF04016B4B6C2BE7D7FF0E3D
:100818007F6F86DCFF0E04017F6F82DCFF0E040110
:0A0828007F6F7EDC8280006A120000
:1008320004016D6B6E6B180E786F64C479F465C435
:100842007AF466C47BF467C47CF476DC00C06AF494
:100852000050000A03E06AC400F012000401FE0E18
:100862008216FE0E7F6F56DC04016B6B6C6B020E00
:100872006C5D02E1000E6B5D0DE26B516825E96E65
:100882006C516921EA6EEECF7FF444DC04016B4BBC
:100892006C2BEDD7FF0E7F6F3DDCFF0E04017F6FE7
:1008A20039DCFF0E04017F6F3EDC00C06AF41F0ECC
:1008B2000014016E0150050A04E082806AC400F04F
:1008C2001200FF0E04017F6F2EDC005212E16DC494
:1008D20001F06EC402F004016D4B6E2B0250FF0852
:1008E20002E10150FE0804E28280010E006E120055
:1008F200E8D704018280FF0E7F6F0CDCFE0E8216A9
:10090200FF0E04017F6F0FDC005212E16DC401F093
:100912006EC402F004016D4B6E2B0250FF0802E11F
:100922000150FE0804E28280010E006E1200E8D738
:060932008280006A120041
:1009380030C42AF4000E04012B6F2A372A912B3772
:100948002A372A912B37060E016E31C400F0015068
:1009580004E00032009EFF0FFBD700502A27000E4C
:100968002B233F0E31152C6F2D6B000E2D17040E07
:10097800006E000E2D6F005005E02C372C912D379E
:10098800FF0FFAD732C400F00032009E0032009EFA
:100998000032009E0032009E00502C27000E2D23AE
:1009A8000F0E32152E6F2F6B000E2F17060E006ECE
:1009B800000E2F6F005005E02E372E912F37FF0FB6
:1009C800FAD733C400F00032009E0032009E005077
:0809D8002E27000E2F23120050
:1009E000E0EC05F0FE0E04015C6F010E5D6F000E81
:1009F0005E6F000E5F6F606B616B626B636B62DEDC
:100A0000ADDE1E50010A2CE11E6A000E1D1802E127
:100A1000010E1C1813E104011A505C25646F1B5071
:100A20005D21656F000E5E21666F000E5F21676FAE
:100A30002A0E686F000E696FFCDE12D01A50040196
:100A40005C25646F1B505D21656F000E5E21666F33
:100A5000000E5F21676F2A0E686F020E696FE9DE74
:100A60002250010A07E1226A23C064F424C065F41D
:100A700007DE57DE2550010AD8A498D00401206A69
:100A8000216A010E5C25606F000E5D21616F000E12
:100A90005E21626F000E5F21636F0A0E5C25016E9E
:100AA000000E5D21026E000E5E21036E000E5F21BE
:100AB000046E0450635D08E10350625D05E102507D
:100AC000615D02E10150605D6FE260C464F461C485
:100AD00065F462C466F463C467F42A0E686F000E9E
:100AE000696F4ADE206A216A000E215C02E1800EF5
:100AF000205C52E220C002F021C003F002360290D6
:100B000003360236029003362A0E0224E96E000EE6
:100B10000320EA6EEECF30F4010E0224006E000EC8
:100B20000320016E2A0E0024E96E000E0120EA6EF9
:100B3000EECF31F4020E0224006E000E0320016E8F
:100B40002A0E0024E96E000E0120EA6EEECF32F488
:100B5000030E0224006E000E0320016E2A0E0024F4
:100B6000E96E000E0120EA6EEECF33F4E5DE2AC412
:100B700064F42BC465F484DDD4DD2CC464F42DC48A
:100B800065F47EDDCEDD2EC464F42FC465F478DD1B
:100B9000C8DD204A212AA8D70401010E6027000ED3
:100BA00061236223632379D7256A818A2AD7FFD7F5
:100BC00010EE1AF0100E006E010E016EB00EF66EF1
:0E0BD0000B0EF76E000EF86E5AEC03F01200DA
:020BB000000043
:020BB200000041
:010BB4000040
:010BB500003F
:020BB60000003D
:010BB800003C
:020BB90000003A
:010BBB000039
:010BBC000038
:010BBD000037
:020BBE00000035
:020000040030CA
:0D000100021F1EFF8181FF0FC00FE00F40A6
:00000001FF
