:040000001BEF01F001
:100018006A80D8CF46F0E8CF47F0E0CF48F0D9CF94
:1000280049F0DACF4AF0F3CF4BF0F4CF4CF09DAC67
:1000380020EF00F022EF00F04DEF00F09EAC27EF2C
:1000480000F029EF00F04DEF00F09E9CC450456E83
:10005800446AC3504424276E000E4520286E3A5047
:10006800D8A439EF00F03BEF00F03FEF00F0010EAD
:10007800356E4DEF00F03804D8A445EF00F047EF97
:1000880000F04DEF00F027C03EF028C03FF020EC14
:1000980005F0F2A452EF00F054EF00F00BEF01F07E
:1000A800F294C2823750D8B45CEF00F05EEF00F0F3
:1000B8005FEF00F0370681A064EF00F066EF00F014
:1000C8009FEF00F03750D8A46CEF00F06EEF00F00F
:1000D8009FEF00F03850D8A474EF00F076EF00F0EE
:1000E8009FEF00F03950D8A47CEF00F07EEF00F0CD
:1000F8009FEF00F03A5001083A6E3A50D8A487EFC3
:1001080000F089EF00F08CEF00F081889DEF00F09F
:100118008198000E326E000E316E000E2A6E000EAF
:10012800296E000E2C6E000E2B6E000E2E6E000E29
:100138002D6E640E376E81A2A4EF00F0A6EF00F0DA
:10014800CBEF00F03750D8A4ACEF00F0AEEF00F0E2
:10015800CBEF00F03A04D8A4B4EF00F0B6EF00F00B
:10016800CBEF00F03850D8A4BCEF00F0BEEF00F0A1
:10017800CBEF00F03950D8A4C4EF00F0C6EF00F080
:10018800CBEF00F0010E396E819A640E376E81A4B0
:10019800D0EF00F0D2EF00F007EF01F03750D8A40D
:1001A800D8EF00F0DAEF00F007EF01F03A04D8A436
:1001B800E0EF00F0E2EF00F007EF01F03850D8A4CC
:1001C800E8EF00F0EAEF00F007EF01F03950D8A4AB
:1001D800F0EF00F0F2EF00F007EF01F0010E386EDB
:1001E800819C000E326E000E316E000E2A6E000EDB
:1001F800296E000E2C6E000E2B6E000E2E6E000E59
:100208002D6E640E376EFC0ED76EF30ED66E4CC094
:10021800F4FF4BC0F3FF4AC0DAFF49C0D9FF48C01A
:10022800E0FF47C0E8FF46C0D8FF6A901000D0EF53
:0202380008F0CC
:100600000000FE0E0001846F010E856F000E866FE4
:10061000000E876F44EC08F0B7EC08F03604D8A45D
:1006200014EF03F016EF03F048EF03F0366A2904E5
:100630002A10D8A41EEF03F020EF03F035EF03F0EB
:100640002B50000184255A6E2C5085215B6E000EC4
:1006500086215C6E000E87215D6E880E5E6E020E36
:100660005F6EABEC06F048EF03F02B5000018425E1
:100670005A6E2C5085215B6E000E86215C6E000E3A
:1006800087215D6E880E5E6E000E5F6EABEC06F02D
:100690003504D8A44EEF03F050EF03F059EF03F008
:1006A000356A27C04DF028C04EF013EC08F074EC0A
:1006B00008F03904D8A45FEF03F061EF03F00EEF08
:1006C00003F0000E2E6E000E2D6E010E000184252B
:1006D000806F000E8521816F000E8621826F000ED3
:1006E0008721836F24EF04F080C05AF081C05BF053
:1006F00082C05CF083C05DF0880E5E6E020E5F6E9D
:1007000032EC07F0000E2E6E000E2D6E2E5009E119
:10071000800E2D5CD8A08FEF03F091EF03F093EFE4
:1007200003F01DEF04F0880E666E020E676ED8901F
:100730002D34D96E2E34DA6ED890D936DA3666502A
:10074000D9266750DA22DF50236E880E666E020EBD
:10075000676E010E6626000E6722D8902D34D96E82
:100760002E34DA6ED890D936DA366650D9266750EC
:10077000DA22DF50246E880E666E020E676E020E5D
:100780006626000E6722D8902D34D96E2E34DA6E8C
:10079000D890D936DA366650D9266750DA22DF503B
:1007A000256E880E666E020E676E030E6626000EBC
:1007B0006722D8902D34D96E2E34DA6ED890D9367F
:1007C000DA366650D9266750DA22DF50266E8DEC75
:1007D00007F00FC04DF010C04EF013EC08F074ECB1
:1007E00008F0210E666E760EE82EFED7662EFCD738
:1007F00000D011C04DF012C04EF013EC08F074ECB4
:1008000008F0210E666E760EE82EFED7662EFCD717
:1008100000D013C04DF014C04EF013EC08F074EC8F
:1008200008F0210E666E760EE82EFED7662EFCD7F7
:1008300000D02D4A2E2A86EF03F0010E00018027FA
:10084000000E8123822383230A0E8425666E000E08
:100850008521676E000E8621686E000E8721696E05
:100860006650805D6750815968508259695083593C
:10087000D8A03DEF04F03FEF04F074EF03F0396AC5
:10088000818A0EEF03F01BEF01F0000E5E6E000E8A
:100890005D6E5B6AFF0E03EC09F05B2A130E5B646E
:1008A00054EF04F056EF04F04AEF04F08290000E8B
:1008B0004E6E000E4F6E000E506E000E516E000E0A
:1008C000EAEC05F05C6E5D4A5E2A5E5008E15D2848
:1008D000D8A06DEF04F06FEF04F072EF04F0010E9A
:1008E0001FEF05F05C04D8A478EF04F07AEF04F071
:1008F00057EF04F08280FF0E03EC09F0FF0E03ECCB
:1009000009F0000E5E6E000E5D6E020E5A6EAA0EAB
:100910004E6E010E4F6E000E506E000E516E080EA0
:10092000EAEC05F05C6E5D4A5E2A5E5008E15D28E7
:10093000D8A09DEF04F09FEF04F0A5EF04F0010EA6
:100940005A6E010E336EADEF04F05C04D8A4ABEF29
:1009500004F0ADEF04F087EF04F0000E5E6E000EC1
:100960005D6E000E4E6E000E4F6E000E506E000E4D
:10097000516E370EEAEC05F0000E4E6E000E4F6E13
:10098000000E506E400E516E290EEAEC05F05C6EC2
:100990005D4A5E2A5D28040E5E58D8A0D2EF04F0AE
:1009A000D4EF04F0D7EF04F0020E1FEF05F05C5017
:1009B000D8A4DDEF04F0DFEF04F0B1EF04F0000E97
:1009C0005E6E000E5D6E346A020E5A18D8A4EBEF0C
:1009D00004F0EDEF04F01EEF05F0000E4E6E000E79
:1009E0004F6E000E506E000E516E3A0EEAEC05F09E
:1009F0005C6E5D4A5E2A5E5008E15D28D8A003EF78
:100A000005F005EF05F008EF05F0336A10EF05F08B
:100A10005C50D8A40EEF05F010EF05F0EDEF04F0F8
:100A20003404D8A416EF05F018EF05F01CEF05F01C
:100A3000020E336E1EEF05F0030E336E000E120031
:100A40003150020DF350150FD96EDA6A3EC0DEFF49
:100A50003FC0DDFF020E31183210D8A432EF05F08E
:100A600034EF05F03AEF05F0000E326E000E316EF5
:100A70003CEF05F0314A322A31503210D8A443EF0E
:100A800005F045EF05F0E9EF05F0D5EC07F0290496
:100A90002A10D8A44EEF05F050EF05F056EF05F000
:100AA000880E2F6E000E306E5AEF05F0880E2F6EF6
:100AB000020E306ED8902D34D96E2E34DA6ED89066
:100AC000D936DA362F50D9263050DA2223C0DFFF4C
:100AD0002DC040F02EC041F0D89040364136D8901D
:100AE0004036413640502F24426E41503020436EF4
:100AF000010E4224D96E000E4320DA6E24C0DFFFBF
:100B00002DC040F02EC041F0D89040364136D890EC
:100B10004036413640502F24426E41503020436EC3
:100B2000020E4224D96E000E4320DA6E25C0DFFF8C
:100B30002DC040F02EC041F0D89040364136D890BC
:100B40004036413640502F24426E41503020436E93
:100B5000030E4224D96E000E4320DA6E26C0DFFF5A
:100B60002E5007E17F0E2D5CD8B0B9EF05F0BBEF3A
:100B700005F0BFEF05F02D4A2E2AE9EF05F0000E33
:100B80002E6E000E2D6E29500108296E2A50D8A015
:100B9000E82A00082A6E29042A10D8A4D2EF05F00A
:100BA000D4EF05F0D7EF05F0818CD8EF05F0819CEC
:100BB0002B4A2C2A2C5009E10A0E2B5CD8A0E3EF1B
:100BC00005F0E5EF05F0E7EF05F0386A818C010EDE
:100BD000366E1200596E566A3450D8A4F2EF05F002
:100BE000F4EF05F043EF06F0110E5918D8B4FBEFFF
:100BF00005F0FDEF05F02AEF06F0120E5918D8B4F3
:100C000004EF06F006EF06F02AEF06F0180E59186A
:100C1000D8B40DEF06F00FEF06F02AEF06F0190E2C
:100C20005918D8B416EF06F018EF06F02AEF06F0C0
:100C3000200E5918D8B41FEF06F021EF06F02AEF66
:100C400006F0210E5918D8A428EF06F02AEF06F076
:100C500043EF06F04EC052F04FC053F050C054F076
:100C600051C055F0090ED890523653365436553689
:100C7000E82E33EF06F052C04EF053C04FF054C090
:100C800050F055C051F082905950400903EC09F0E2
:100C9000515003EC09F0505003EC09F04F5003ECB5
:100CA00009F04E5003EC09F0080E5918D8A45BEF78
:100CB00006F05DEF06F062EF06F0870E03EC09F038
:100CC0006CEF06F0950E03EC09F06CEF06F0563E63
:100CD0006CEF06F078EF06F0FF0E0AEC09F0586EA4
:100CE0005828D8B476EF06F078EF06F067EF06F0F4
:100CF0005850D8A47EEF06F080EF06F0A5EF06F07E
:100D00003A0E5918D8A487EF06F089EF06F0A5EF40
:100D100006F0FF0E0AEC09F0400B576E400E571814
:100D2000D8A495EF06F097EF06F09BEF06F0010EC2
:100D3000346E9CEF06F0346AFF0E0AEC09F0FF0EE9
:100D40000AEC09F0FF0E0AEC09F0FF0E0AEC09F0BC
:100D5000828058501200000E616E000E606E5AC004
:100D60004EF05BC04FF05CC050F05DC051F0180E0B
:100D7000EAEC05F0626E6250D8B4C1EF06F0C3EF42
:100D800006F0C5EF06F031EF07F08290FE0E03EC9F
:100D900009F0000E646E000E636E63505E24D96E1F
:100DA00064505F20DA6EDF5003EC09F0634A642A76
:100DB000020E645CD8A0DFEF06F0E1EF06F0CDEFA5
:100DC00006F0FF0E03EC09F0FF0E03EC09F0FF0E36
:100DD0000AEC09F0626E62501F0B050AD8B4F3EFFB
:100DE00006F0F5EF06F005EF07F0828031EF07F02F
:100DF000604A612A60506110D8A401EF07F003EF48
:100E000007F005EF07F0F5EF06F0FF0E0AEC09F02A
:100E10000009D8B40EEF07F010EF07F0F8EF06F076
:100E20008280FF0E03EC09F0829024EF07F0604A05
:100E3000612A60506110D8A420EF07F022EF07F07C
:100E400024EF07F0F5EF06F0FF0E0AEC09F00009B9
:100E5000D8B42DEF07F02FEF07F017EF07F0F5EFFD
:100E600006F012005AC04EF05BC04FF05CC050F06C
:100E70005DC051F0110EEAEC05F0626E6250D8B41C
:100E800044EF07F046EF07F048EF07F08CEF07F06C
:100E90008290000E616E000E606E5DEF07F0604A9A
:100EA000612A60506110D8A458EF07F05AEF07F09C
:100EB0005DEF07F082808CEF07F0FF0E0AEC09F07F
:100EC000FE0AD8A466EF07F068EF07F04FEF07F0CF
:100ED000000E646E000E636E63505E24D96E645023
:100EE0005F20DA6EFF0E0AEC09F0DF6E634A642AB7
:100EF000020E645CD8A07FEF07F081EF07F06CEF83
:100F000007F0FF0E0AEC09F0FF0E0AEC09F0FF0EE5
:100F10000AEC09F05AEF07F0120024C04DF0060E5B
:100F20004E6ED8904D324E2E91EF07F023504F6EFB
:100F3000506AD8904F365036D8904F3650364D5074
:100F40004F240F6E000E5020106E25C04DF04D3A0C
:100F50000F0E4D1624503F0B4E6E4F6A4E3A4F3ACD
:100F6000F00E4F164E500F0B4F12F00E4E164D5006
:100F70004E24116E000E4F20126E26C04DF0D890F8
:100F80004D32D8904D3225500F0B4E6E4F6A060EE3
:100F9000D8904E364F36E82EC8EF07F04D504E240D
:100FA000136E000E4F20146E120015C03BF016C0D9
:100FB0003CF03C343C323B323C343C323B323B50E4
:100FC000236E20EE17F0DECF3BF0DDCF3CF0040EB9
:100FD0003D6E3C343C323B323D2EE9EF07F015507C
:100FE000030B400DF3503B24246E20EE19F0DECFAE
:100FF0003BF0DDCF3CF0060E3D6E3C343C323B32E4
:101000003D2EFDEF07F017500F0B100DF3503B2452
:10101000256E19C03BF03F0E3B16D8903B36D8905A
:101020003B34266E1200000E526E000E516E51506F
:10103000010FD96EDA6ADF6A514A522A52BE2AEF8C
:1010400008F0525009E10E0E515CD8A02AEF08F0CA
:101050002CEF08F017EF08F0AA0E016E4DC04FF00C
:101060004EC050F0D89050324F32D89050324F325C
:101070004F50066E4DC04FF0030E4F16D8904F36AE
:10108000D8904F34086E1200010E926E80680F0ED9
:10109000936EF00E816ED40E946E82680E0EC16E49
:1010A000AE0EC06E010EC26E840ED56EFC0ED76EF3
:1010B000F30ED66EE00EF26E840EF16E400E9D6E53
:1010C000E5EC08F081989AEC08F05FC064F060C02D
:1010D00065F064506510D8A470EF08F072EF08F066
:1010E00073EF08F081881200000E4E6E000E4D6EF8
:1010F000000E4E6E000E4D6E4D50010FD96EDA6A25
:10110000DF50AD6EACA287EF08F089EF08F082EFF8
:1011100008F04D4A4E2A4EBE97EF08F04E5009E1B6
:101120000E0E4D5CD8A097EF08F099EF08F07CEF19
:1011300008F01200000E4D6E000E4E6E400E4F6E07
:10114000220EF3EC08F045EC04F0616E6150626E23
:10115000636A000E4D6E000E4E6E400E4F6E220EF4
:10116000F3EC08F062C05FF063C060F01200000EA4
:10117000166E000E156E000E186E000E176E000E25
:101180001A6E000E196E000E106E000E0F6E000E1D
:10119000126E000E116E000E146E000E136E120011
:1011A00000EE88F014EE00F0EE6AE550E150FCE14C
:1011B000E250FAE100EE01F03A0EEE6AE806FDE1D7
:1011C0006A906A92000101EF03F0948C948E310EC4
:1011D000AF6EB06AAC9EAC9CAC8AAC98AC84B8865E
:1011E000900EAB6E1200506E4D504F10C76E5050A7
:1011F0004E10C66E1200C7A000EF09F002EF09F012
:10120000FBEF08F012004D6E4DC0C9FFFBEC08F07B
:10121000C95012004D6E4DC0C9FFFBEC08F0C9501B
:021220001200BA
:020000040020DA
:08000000FFFFFFFFFFFFFFFF00
:020000040030CA
:0E000000FF02191EFF0180FF0FC00FE00F402E
:00000001FF
