:0400000030EF00F0ED
:100018002080D8CF15F0E8CF16F0E0CF17F0F2AA7D
:1000280018EF00F01AEF00F028EF00F0F2A41FEF2D
:1000380000F021EF00F028EF00F0F294010E146EAA
:10004800FC0ED76EF30ED66E17C0E0FF16C0E8FFA1
:0C00580015C0D8FF20901000EAEF08F05F
:101000000000C1EC08F086EC08F000EC09F0135089
:10101000D8B40DEF08F00FEF08F01AEF08F00A0E41
:10102000136015EF08F017EF08F01AEF08F0818051
:101030001BEF08F081901404D8A421EF08F023EFEF
:1010400008F007EF08F0146A81A829EF08F02BEFE9
:1010500008F02FEF08F0640E136E38EF08F013500D
:10106000D8B435EF08F037EF08F038EF08F0130682
:10107000000EA4EC08F018C011F019C012F0010E17
:10108000A4EC08F018C00FF019C010F04CEC08F0F8
:1010900007EF08F030EF00F0000E1D6E000E1C6E22
:1010A00011C01AF012C01BF00FC01CF010C01DF0D0
:1010B000AA0E016E1A40E842C00B066E086A1C4078
:1010C000E842C00B0A6E1CC019F0030E191619383D
:1010D000F00B0B6E000E1F6E000E1E6E1E50010FE9
:1010E000D96EDA6ADF50F5EC08F01E4A1F2A1FBEDF
:1010F00083EF08F01F5009E10E0E1E5CD8A083EFAD
:1011000008F085EF08F06EEF08F01200030E926E03
:101110008068320E936EF00E816ED00E946E8268EF
:101120000D0EC16EAE0EC06E010EC26E840ED56E77
:10113000FC0ED76EF30ED66EA00EF26E840EF16E1C
:101140009D6ADDEC08F012001C6E1C44E846FC0BA6
:101150000109C26E050EE82EFED7C282C2B2B3EFFD
:1011600008F0B5EF08F0AEEF08F0C350C4CF1AF0A6
:101170001B6A1AC01BF01A6A1A10186E1B50196EDF
:101180001200000E196E000E186E1850010FD96E65
:10119000DA6ADF6A184A192A19BED8EF08F019501E
:1011A00009E10E0E185CD8A0D8EF08F0DAEF08F0CD
:1011B000C5EF08F0AA0E016E1200948C948E310EC9
:1011C000AF6EAC9EAC9CAC8AAC98AC84B886900EEA
:1011D000AB6E120000EE01F0140EEE6AE806FDE1BF
:1011E00020902092000101EF08F0186E18C0ADFFAA
:1011F000ACA2FDEF08F0FFEF08F0F8EF08F01200E6
:101200003D0ECB6E1F0EBB6E1C0EBA6E040ECA6E68
:04121000939612009F
:020000040020DA
:08000000FFFFFFFFFFFFFFFF00
:020000040030CA
:0E000000FF02191EFF0080FF0FC00FE00F402F
:00000001FF
